{
  "contractName": "NFTMarket",
  "abi": [
    {
      "inputs": [],
      "stateMutability": "nonpayable",
      "type": "constructor"
    },
    {
      "anonymous": false,
      "inputs": [
        {
          "indexed": true,
          "internalType": "uint256",
          "name": "itemId",
          "type": "uint256"
        },
        {
          "indexed": true,
          "internalType": "address",
          "name": "nftContract",
          "type": "address"
        },
        {
          "indexed": true,
          "internalType": "uint256",
          "name": "tokenId",
          "type": "uint256"
        },
        {
          "indexed": false,
          "internalType": "address",
          "name": "seller",
          "type": "address"
        },
        {
          "indexed": false,
          "internalType": "address",
          "name": "owner",
          "type": "address"
        },
        {
          "indexed": false,
          "internalType": "uint256",
          "name": "price",
          "type": "uint256"
        },
        {
          "indexed": false,
          "internalType": "bool",
          "name": "sold",
          "type": "bool"
        }
      ],
      "name": "MarketItemCreated",
      "type": "event"
    },
    {
      "inputs": [],
      "name": "getListingPrice",
      "outputs": [
        {
          "internalType": "uint256",
          "name": "",
          "type": "uint256"
        }
      ],
      "stateMutability": "view",
      "type": "function",
      "constant": true
    },
    {
      "inputs": [
        {
          "internalType": "uint256",
          "name": "_price",
          "type": "uint256"
        }
      ],
      "name": "setListingPrice",
      "outputs": [
        {
          "internalType": "uint256",
          "name": "",
          "type": "uint256"
        }
      ],
      "stateMutability": "nonpayable",
      "type": "function"
    },
    {
      "inputs": [
        {
          "internalType": "address",
          "name": "nftContract",
          "type": "address"
        },
        {
          "internalType": "uint256",
          "name": "tokenId",
          "type": "uint256"
        },
        {
          "internalType": "uint256",
          "name": "price",
          "type": "uint256"
        }
      ],
      "name": "createMarketItem",
      "outputs": [],
      "stateMutability": "payable",
      "type": "function",
      "payable": true
    },
    {
      "inputs": [
        {
          "internalType": "address",
          "name": "nftContract",
          "type": "address"
        },
        {
          "internalType": "uint256",
          "name": "itemId",
          "type": "uint256"
        }
      ],
      "name": "createMarketSale",
      "outputs": [],
      "stateMutability": "payable",
      "type": "function",
      "payable": true
    },
    {
      "inputs": [],
      "name": "fetchMarketItems",
      "outputs": [
        {
          "components": [
            {
              "internalType": "uint256",
              "name": "itemId",
              "type": "uint256"
            },
            {
              "internalType": "address",
              "name": "nftContract",
              "type": "address"
            },
            {
              "internalType": "uint256",
              "name": "tokenId",
              "type": "uint256"
            },
            {
              "internalType": "address payable",
              "name": "seller",
              "type": "address"
            },
            {
              "internalType": "address payable",
              "name": "owner",
              "type": "address"
            },
            {
              "internalType": "uint256",
              "name": "price",
              "type": "uint256"
            },
            {
              "internalType": "bool",
              "name": "sold",
              "type": "bool"
            }
          ],
          "internalType": "struct NFTMarket.MarketItem[]",
          "name": "",
          "type": "tuple[]"
        }
      ],
      "stateMutability": "view",
      "type": "function",
      "constant": true
    },
    {
      "inputs": [],
      "name": "fetchMyNFTs",
      "outputs": [
        {
          "components": [
            {
              "internalType": "uint256",
              "name": "itemId",
              "type": "uint256"
            },
            {
              "internalType": "address",
              "name": "nftContract",
              "type": "address"
            },
            {
              "internalType": "uint256",
              "name": "tokenId",
              "type": "uint256"
            },
            {
              "internalType": "address payable",
              "name": "seller",
              "type": "address"
            },
            {
              "internalType": "address payable",
              "name": "owner",
              "type": "address"
            },
            {
              "internalType": "uint256",
              "name": "price",
              "type": "uint256"
            },
            {
              "internalType": "bool",
              "name": "sold",
              "type": "bool"
            }
          ],
          "internalType": "struct NFTMarket.MarketItem[]",
          "name": "",
          "type": "tuple[]"
        }
      ],
      "stateMutability": "view",
      "type": "function",
      "constant": true
    },
    {
      "inputs": [],
      "name": "fetchItemsCreated",
      "outputs": [
        {
          "components": [
            {
              "internalType": "uint256",
              "name": "itemId",
              "type": "uint256"
            },
            {
              "internalType": "address",
              "name": "nftContract",
              "type": "address"
            },
            {
              "internalType": "uint256",
              "name": "tokenId",
              "type": "uint256"
            },
            {
              "internalType": "address payable",
              "name": "seller",
              "type": "address"
            },
            {
              "internalType": "address payable",
              "name": "owner",
              "type": "address"
            },
            {
              "internalType": "uint256",
              "name": "price",
              "type": "uint256"
            },
            {
              "internalType": "bool",
              "name": "sold",
              "type": "bool"
            }
          ],
          "internalType": "struct NFTMarket.MarketItem[]",
          "name": "",
          "type": "tuple[]"
        }
      ],
      "stateMutability": "view",
      "type": "function",
      "constant": true
    }
  ],
  "bytecode": "0x6080604052670de0b6b3a764000060045534801561001c57600080fd5b50600160008190555033600360006101000a81548173ffffffffffffffffffffffffffffffffffffffff021916908373ffffffffffffffffffffffffffffffffffffffff160217905550611a20806100756000396000f3fe60806040526004361061008d576000357c01000000000000000000000000000000000000000000000000000000009004806358eb2df51161006b57806358eb2df5146101135780637c726b691461012f578063c23b139e1461016c578063f064c32e146101885761008d565b80630f08efe01461009257806312e85585146100bd578063202e3740146100e8575b600080fd5b34801561009e57600080fd5b506100a76101b3565b6040516100b4919061147a565b60405180910390f35b3480156100c957600080fd5b506100d2610493565b6040516100df91906114ab565b60405180910390f35b3480156100f457600080fd5b506100fd61049d565b60405161010a919061147a565b60405180910390f35b61012d60048036038101906101289190611523565b610801565b005b34801561013b57600080fd5b5061015660048036038101906101519190611576565b610b81565b60405161016391906114ab565b60405180910390f35b610186600480360381019061018191906115a3565b610bc9565b005b34801561019457600080fd5b5061019d610e9e565b6040516101aa919061147a565b60405180910390f35b606060006101c16001611202565b905060006101cf6002611202565b6101d96001611202565b6101e39190611612565b90506000808267ffffffffffffffff81111561020257610201611646565b5b60405190808252806020026020018201604052801561023b57816020015b610228611226565b8152602001906001900390816102205790505b50905060005b8481101561048857600073ffffffffffffffffffffffffffffffffffffffff16600560006001846102729190611675565b815260200190815260200160002060040160009054906101000a900473ffffffffffffffffffffffffffffffffffffffff1673ffffffffffffffffffffffffffffffffffffffff161415610475576000600560006001846102d39190611675565b81526020019081526020016000206000015490506000600560008381526020019081526020016000209050806040518060e0016040529081600082015481526020016001820160009054906101000a900473ffffffffffffffffffffffffffffffffffffffff1673ffffffffffffffffffffffffffffffffffffffff1673ffffffffffffffffffffffffffffffffffffffff168152602001600282015481526020016003820160009054906101000a900473ffffffffffffffffffffffffffffffffffffffff1673ffffffffffffffffffffffffffffffffffffffff1673ffffffffffffffffffffffffffffffffffffffff1681526020016004820160009054906101000a900473ffffffffffffffffffffffffffffffffffffffff1673ffffffffffffffffffffffffffffffffffffffff1673ffffffffffffffffffffffffffffffffffffffff168152602001600582015481526020016006820160009054906101000a900460ff161515151581525050848681518110610458576104576116cb565b5b60200260200101819052506001856104709190611675565b945050505b8080610480906116fa565b915050610241565b508094505050505090565b6000600454905090565b606060006104ab6001611202565b905060008060005b83811015610554573373ffffffffffffffffffffffffffffffffffffffff16600560006001846104e39190611675565b815260200190815260200160002060040160009054906101000a900473ffffffffffffffffffffffffffffffffffffffff1673ffffffffffffffffffffffffffffffffffffffff1614156105415760018361053e9190611675565b92505b808061054c906116fa565b9150506104b3565b5060008267ffffffffffffffff81111561057157610570611646565b5b6040519080825280602002602001820160405280156105aa57816020015b610597611226565b81526020019060019003908161058f5790505b50905060005b848110156107f6573373ffffffffffffffffffffffffffffffffffffffff16600560006001846105e09190611675565b815260200190815260200160002060040160009054906101000a900473ffffffffffffffffffffffffffffffffffffffff1673ffffffffffffffffffffffffffffffffffffffff1614156107e3576000600560006001846106419190611675565b81526020019081526020016000206000015490506000600560008381526020019081526020016000209050806040518060e0016040529081600082015481526020016001820160009054906101000a900473ffffffffffffffffffffffffffffffffffffffff1673ffffffffffffffffffffffffffffffffffffffff1673ffffffffffffffffffffffffffffffffffffffff168152602001600282015481526020016003820160009054906101000a900473ffffffffffffffffffffffffffffffffffffffff1673ffffffffffffffffffffffffffffffffffffffff1673ffffffffffffffffffffffffffffffffffffffff1681526020016004820160009054906101000a900473ffffffffffffffffffffffffffffffffffffffff1673ffffffffffffffffffffffffffffffffffffffff1673ffffffffffffffffffffffffffffffffffffffff168152602001600582015481526020016006820160009054906101000a900460ff1615151515815250508486815181106107c6576107c56116cb565b5b60200260200101819052506001856107de9190611675565b945050505b80806107ee906116fa565b9150506105b0565b508094505050505090565b60026000541415610847576040517f08c379a000000000000000000000000000000000000000000000000000000000815260040161083e906117a0565b60405180910390fd5b600260008190555060008111610892576040517f08c379a00000000000000000000000000000000000000000000000000000000081526004016108899061180c565b60405180910390fd5b60045434146108d6576040517f08c379a00000000000000000000000000000000000000000000000000000000081526004016108cd9061189e565b60405180910390fd5b6108e06001611210565b60006108ec6001611202565b90506040518060e001604052808281526020018573ffffffffffffffffffffffffffffffffffffffff1681526020018481526020013373ffffffffffffffffffffffffffffffffffffffff168152602001600073ffffffffffffffffffffffffffffffffffffffff16815260200183815260200160001515815250600560008381526020019081526020016000206000820151816000015560208201518160010160006101000a81548173ffffffffffffffffffffffffffffffffffffffff021916908373ffffffffffffffffffffffffffffffffffffffff1602179055506040820151816002015560608201518160030160006101000a81548173ffffffffffffffffffffffffffffffffffffffff021916908373ffffffffffffffffffffffffffffffffffffffff16021790555060808201518160040160006101000a81548173ffffffffffffffffffffffffffffffffffffffff021916908373ffffffffffffffffffffffffffffffffffffffff16021790555060a0820151816005015560c08201518160060160006101000a81548160ff0219169083151502179055509050508373ffffffffffffffffffffffffffffffffffffffff166323b872dd3330866040518463ffffffff167c0100000000000000000000000000000000000000000000000000000000028152600401610ae9939291906118cd565b600060405180830381600087803b158015610b0357600080fd5b505af1158015610b17573d6000803e3d6000fd5b50505050828473ffffffffffffffffffffffffffffffffffffffff16827f045dfa01dcba2b36aba1d3dc4a874f4b0c5d2fbeb8d2c4b34a7d88c8d8f929d1336000876000604051610b6b9493929190611913565b60405180910390a4506001600081905550505050565b60003073ffffffffffffffffffffffffffffffffffffffff163373ffffffffffffffffffffffffffffffffffffffff161415610bbf57816004819055505b6004549050919050565b60026000541415610c0f576040517f08c379a0000000000000000000000000000000000000000000000000000000008152600401610c06906117a0565b60405180910390fd5b6002600081905550600060056000838152602001908152602001600020600501549050600060056000848152602001908152602001600020600201549050813414610c8f576040517f08c379a0000000000000000000000000000000000000000000000000000000008152600401610c86906119ca565b60405180910390fd5b6005600084815260200190815260200160002060030160009054906101000a900473ffffffffffffffffffffffffffffffffffffffff1673ffffffffffffffffffffffffffffffffffffffff166108fc349081150290604051600060405180830381858888f19350505050158015610d0b573d6000803e3d6000fd5b508373ffffffffffffffffffffffffffffffffffffffff166323b872dd3033846040518463ffffffff167c0100000000000000000000000000000000000000000000000000000000028152600401610d65939291906118cd565b600060405180830381600087803b158015610d7f57600080fd5b505af1158015610d93573d6000803e3d6000fd5b50505050336005600085815260200190815260200160002060040160006101000a81548173ffffffffffffffffffffffffffffffffffffffff021916908373ffffffffffffffffffffffffffffffffffffffff16021790555060016005600085815260200190815260200160002060060160006101000a81548160ff021916908315150217905550610e256002611210565b600360009054906101000a900473ffffffffffffffffffffffffffffffffffffffff1673ffffffffffffffffffffffffffffffffffffffff166108fc6004549081150290604051600060405180830381858888f19350505050158015610e8f573d6000803e3d6000fd5b50505060016000819055505050565b60606000610eac6001611202565b905060008060005b83811015610f55573373ffffffffffffffffffffffffffffffffffffffff1660056000600184610ee49190611675565b815260200190815260200160002060030160009054906101000a900473ffffffffffffffffffffffffffffffffffffffff1673ffffffffffffffffffffffffffffffffffffffff161415610f4257600183610f3f9190611675565b92505b8080610f4d906116fa565b915050610eb4565b5060008267ffffffffffffffff811115610f7257610f71611646565b5b604051908082528060200260200182016040528015610fab57816020015b610f98611226565b815260200190600190039081610f905790505b50905060005b848110156111f7573373ffffffffffffffffffffffffffffffffffffffff1660056000600184610fe19190611675565b815260200190815260200160002060030160009054906101000a900473ffffffffffffffffffffffffffffffffffffffff1673ffffffffffffffffffffffffffffffffffffffff1614156111e4576000600560006001846110429190611675565b81526020019081526020016000206000015490506000600560008381526020019081526020016000209050806040518060e0016040529081600082015481526020016001820160009054906101000a900473ffffffffffffffffffffffffffffffffffffffff1673ffffffffffffffffffffffffffffffffffffffff1673ffffffffffffffffffffffffffffffffffffffff168152602001600282015481526020016003820160009054906101000a900473ffffffffffffffffffffffffffffffffffffffff1673ffffffffffffffffffffffffffffffffffffffff1673ffffffffffffffffffffffffffffffffffffffff1681526020016004820160009054906101000a900473ffffffffffffffffffffffffffffffffffffffff1673ffffffffffffffffffffffffffffffffffffffff1673ffffffffffffffffffffffffffffffffffffffff168152602001600582015481526020016006820160009054906101000a900460ff1615151515815250508486815181106111c7576111c66116cb565b5b60200260200101819052506001856111df9190611675565b945050505b80806111ef906116fa565b915050610fb1565b508094505050505090565b600081600001549050919050565b6001816000016000828254019250508190555050565b6040518060e0016040528060008152602001600073ffffffffffffffffffffffffffffffffffffffff16815260200160008152602001600073ffffffffffffffffffffffffffffffffffffffff168152602001600073ffffffffffffffffffffffffffffffffffffffff168152602001600081526020016000151581525090565b600081519050919050565b600082825260208201905092915050565b6000819050602082019050919050565b6000819050919050565b6112e6816112d3565b82525050565b600073ffffffffffffffffffffffffffffffffffffffff82169050919050565b6000611317826112ec565b9050919050565b6113278161130c565b82525050565b6000611338826112ec565b9050919050565b6113488161132d565b82525050565b60008115159050919050565b6113638161134e565b82525050565b60e08201600082015161137f60008501826112dd565b506020820151611392602085018261131e565b5060408201516113a560408501826112dd565b5060608201516113b8606085018261133f565b5060808201516113cb608085018261133f565b5060a08201516113de60a08501826112dd565b5060c08201516113f160c085018261135a565b50505050565b60006114038383611369565b60e08301905092915050565b6000602082019050919050565b6000611427826112a7565b61143181856112b2565b935061143c836112c3565b8060005b8381101561146d57815161145488826113f7565b975061145f8361140f565b925050600181019050611440565b5085935050505092915050565b60006020820190508181036000830152611494818461141c565b905092915050565b6114a5816112d3565b82525050565b60006020820190506114c0600083018461149c565b92915050565b600080fd5b6114d48161130c565b81146114df57600080fd5b50565b6000813590506114f1816114cb565b92915050565b611500816112d3565b811461150b57600080fd5b50565b60008135905061151d816114f7565b92915050565b60008060006060848603121561153c5761153b6114c6565b5b600061154a868287016114e2565b935050602061155b8682870161150e565b925050604061156c8682870161150e565b9150509250925092565b60006020828403121561158c5761158b6114c6565b5b600061159a8482850161150e565b91505092915050565b600080604083850312156115ba576115b96114c6565b5b60006115c8858286016114e2565b92505060206115d98582860161150e565b9150509250929050565b7f4e487b7100000000000000000000000000000000000000000000000000000000600052601160045260246000fd5b600061161d826112d3565b9150611628836112d3565b92508282101561163b5761163a6115e3565b5b828203905092915050565b7f4e487b7100000000000000000000000000000000000000000000000000000000600052604160045260246000fd5b6000611680826112d3565b915061168b836112d3565b9250827fffffffffffffffffffffffffffffffffffffffffffffffffffffffffffffffff038211156116c0576116bf6115e3565b5b828201905092915050565b7f4e487b7100000000000000000000000000000000000000000000000000000000600052603260045260246000fd5b6000611705826112d3565b91507fffffffffffffffffffffffffffffffffffffffffffffffffffffffffffffffff821415611738576117376115e3565b5b600182019050919050565b600082825260208201905092915050565b7f5265656e7472616e637947756172643a207265656e7472616e742063616c6c00600082015250565b600061178a601f83611743565b915061179582611754565b602082019050919050565b600060208201905081810360008301526117b98161177d565b9050919050565b7f5072696365206d7573742062652061626f7665207a65726f0000000000000000600082015250565b60006117f6601883611743565b9150611801826117c0565b602082019050919050565b60006020820190508181036000830152611825816117e9565b9050919050565b7f5072696365206d75737420626520657175616c20746f206c697374696e67207060008201527f7269636500000000000000000000000000000000000000000000000000000000602082015250565b6000611888602483611743565b91506118938261182c565b604082019050919050565b600060208201905081810360008301526118b78161187b565b9050919050565b6118c78161130c565b82525050565b60006060820190506118e260008301866118be565b6118ef60208301856118be565b6118fc604083018461149c565b949350505050565b61190d8161134e565b82525050565b600060808201905061192860008301876118be565b61193560208301866118be565b611942604083018561149c565b61194f6060830184611904565b95945050505050565b7f506c65617365207375626d6974207468652061736b696e67207072696365206960008201527f6e206f7264657220746f20636f6d706c65746520707572636861736500000000602082015250565b60006119b4603c83611743565b91506119bf82611958565b604082019050919050565b600060208201905081810360008301526119e3816119a7565b905091905056fea2646970667358221220838d95c0024a681221d4113e08e648ce42be3a837548dc0e6632f2f7a730a8ac64736f6c634300080c0033",
  "immutableReferences": {},
  "source": "//SPDX-License-Identifier: MIT\npragma solidity >=0.4.22 <0.9.0;\n\nimport \"@openzeppelin/contracts/utils/Counters.sol\";\nimport \"@openzeppelin/contracts/token/ERC721/ERC721.sol\";\n //prevents re-entrancy attacks\nimport \"@openzeppelin/contracts/security/ReentrancyGuard.sol\";\n\ncontract NFTMarket is ReentrancyGuard {\n    using Counters for Counters.Counter;\n    Counters.Counter private _itemIds; //total number of items ever created\n    Counters.Counter private _itemsSold; //total number of items sold\n\n    address payable owner; //owner of the smart contract\n    //people have to pay to puy their NFT on this marketplace\n    uint256 listingPrice = 1 ether;\n// 1000000000000000000\n// 25000000000000000\n    constructor(){\n        owner = payable(msg.sender);\n    }\n\n    struct MarketItem {\n        uint itemId;\n        address nftContract;\n        uint256 tokenId;\n        address payable seller; //person selling the nft\n        address payable owner; //owner of the nft\n        uint256 price;\n        bool sold;\n    }\n\n    //a way to access values of the MarketItem struct above by passing an integer ID\n    mapping(uint256 => MarketItem) private idMarketItem;\n\n    //log message (when Item is sold)\n    event MarketItemCreated (\n        uint indexed itemId,\n        address indexed nftContract,\n        uint256 indexed tokenId,\n        address  seller,\n        address  owner,\n        uint256 price,\n        bool sold\n    );\n\n    /// @notice function to get listingprice\n    function getListingPrice() public view returns (uint256){\n        return listingPrice;\n    }\n\n    function setListingPrice(uint _price) public returns(uint) {\n         if(msg.sender == address(this) ){\n             listingPrice = _price;\n         }\n         return listingPrice;\n    }\n\n    /// @notice function to create market item\n    function createMarketItem(\n        address nftContract,\n        uint256 tokenId,\n        uint256 price) public payable nonReentrant{\n         require(price > 0, \"Price must be above zero\");\n         require(msg.value == listingPrice, \"Price must be equal to listing price\");\n\n         _itemIds.increment(); //add 1 to the total number of items ever created\n         uint256 itemId = _itemIds.current();\n\n         idMarketItem[itemId] = MarketItem(\n             itemId,\n             nftContract,\n             tokenId,\n             payable(msg.sender), //address of the seller putting the nft up for sale\n             payable(address(0)), //no owner yet (set owner to empty address)\n             price,\n             false\n         );\n\n            //transfer ownership of the nft to the contract itself\n            IERC721(nftContract).transferFrom(msg.sender, address(this), tokenId);\n\n            //log this transaction\n            emit MarketItemCreated(\n                itemId,\n             nftContract,\n             tokenId,\n             msg.sender,\n             address(0),\n             price,\n             false);\n\n        }\n// 100000000000000000\n\n        /// @notice function to create a sale\n        function createMarketSale(\n            address nftContract,\n            uint256 itemId\n            ) public payable nonReentrant{\n                uint price = idMarketItem[itemId].price;\n                uint tokenId = idMarketItem[itemId].tokenId;\n\n                require(msg.value == price, \"Please submit the asking price in order to complete purchase\");\n\n           //pay the seller the amount\n           idMarketItem[itemId].seller.transfer(msg.value);\n\n             //transfer ownership of the nft from the contract itself to the buyer\n            IERC721(nftContract).transferFrom(address(this), msg.sender, tokenId);\n\n            idMarketItem[itemId].owner = payable(msg.sender); //mark buyer as new owner\n            idMarketItem[itemId].sold = true; //mark that it has been sold\n            _itemsSold.increment(); //increment the total number of Items sold by 1\n            payable(owner).transfer(listingPrice); //pay owner of contract the listing price\n        }\n\n\n        /// @notice total number of items unsold on our platform\n        function fetchMarketItems() public view returns (MarketItem[] memory){\n            uint itemCount = _itemIds.current(); //total number of items ever created\n            //total number of items that are unsold = total items ever created - total items ever sold\n            uint unsoldItemCount = _itemIds.current() - _itemsSold.current();\n            uint currentIndex = 0;\n\n            MarketItem[] memory items =  new MarketItem[](unsoldItemCount);\n\n            //loop through all items ever created\n            for(uint i = 0; i < itemCount; i++){\n\n                //get only unsold item\n                //check if the item has not been sold\n                //by checking if the owner field is empty\n                if(idMarketItem[i+1].owner == address(0)){\n                    //yes, this item has never been sold\n                    uint currentId = idMarketItem[i + 1].itemId;\n                    MarketItem storage currentItem = idMarketItem[currentId];\n                    items[currentIndex] = currentItem;\n                    currentIndex += 1;\n\n                }\n            }\n            return items; //return array of all unsold items\n        }\n\n        /// @notice fetch list of NFTS owned/bought by this user\n        function fetchMyNFTs() public view returns (MarketItem[] memory){\n            //get total number of items ever created\n            uint totalItemCount = _itemIds.current();\n\n            uint itemCount = 0;\n            uint currentIndex = 0;\n\n\n            for(uint i = 0; i < totalItemCount; i++){\n                //get only the items that this user has bought/is the owner\n                if(idMarketItem[i+1].owner == msg.sender){\n                    itemCount += 1; //total length\n                }\n            }\n\n            MarketItem[] memory items = new MarketItem[](itemCount);\n            for(uint i = 0; i < totalItemCount; i++){\n               if(idMarketItem[i+1].owner == msg.sender){\n                   uint currentId = idMarketItem[i+1].itemId;\n                   MarketItem storage currentItem = idMarketItem[currentId];\n                   items[currentIndex] = currentItem;\n                   currentIndex += 1;\n               }\n            }\n            return items;\n\n        }\n\n\n         /// @notice fetch list of NFTS owned/bought by this user\n        function fetchItemsCreated() public view returns (MarketItem[] memory){\n            //get total number of items ever created\n            uint totalItemCount = _itemIds.current();\n\n            uint itemCount = 0;\n            uint currentIndex = 0;\n\n\n            for(uint i = 0; i < totalItemCount; i++){\n                //get only the items that this user has bought/is the owner\n                if(idMarketItem[i+1].seller == msg.sender){\n                    itemCount += 1; //total length\n                }\n            }\n\n            MarketItem[] memory items = new MarketItem[](itemCount);\n            for(uint i = 0; i < totalItemCount; i++){\n               if(idMarketItem[i+1].seller == msg.sender){\n                   uint currentId = idMarketItem[i+1].itemId;\n                   MarketItem storage currentItem = idMarketItem[currentId];\n                   items[currentIndex] = currentItem;\n                   currentIndex += 1;\n               }\n            }\n            return items;\n\n        }\n\n\n\n\n}\n",
  "sourcePath": "/home/ha/Downloads/program/2931/contracts/NFTMarket.sol",
  "compiler": {
    "name": "solc",
    "version": "0.8.12+commit.f00d7308.Emscripten.clang"
  },
  "schemaVersion": "3.4.5",
  "updatedAt": "2022-03-29T15:45:14.914Z",
  "networkType": "ethereum",
  "devdoc": {
    "kind": "dev",
    "methods": {},
    "version": 1
  },
  "userdoc": {
    "kind": "user",
    "methods": {
      "createMarketItem(address,uint256,uint256)": {
        "notice": "function to create market item"
      },
      "createMarketSale(address,uint256)": {
        "notice": "function to create a sale"
      },
      "fetchItemsCreated()": {
        "notice": "fetch list of NFTS owned/bought by this user"
      },
      "fetchMarketItems()": {
        "notice": "total number of items unsold on our platform"
      },
      "fetchMyNFTs()": {
        "notice": "fetch list of NFTS owned/bought by this user"
      },
      "getListingPrice()": {
        "notice": "function to get listingprice"
      }
    },
    "version": 1
  }
}